{
  "contractName": "newsDetection",
  "abi": [
    {
      "constant": true,
      "inputs": [
        {
          "name": "",
          "type": "uint256"
        }
      ],
      "name": "newsDetails",
      "outputs": [
        {
          "name": "newsId",
          "type": "uint256"
        },
        {
          "name": "newsPost",
          "type": "string"
        },
        {
          "name": "voteCount",
          "type": "uint256"
        }
      ],
      "payable": false,
      "stateMutability": "view",
      "type": "function",
      "signature": "0x2309ec7d"
    },
    {
      "constant": true,
      "inputs": [
        {
          "name": "",
          "type": "address"
        }
      ],
      "name": "evaluatorDetails",
      "outputs": [
        {
          "name": "evaluatorAddress",
          "type": "address"
        },
        {
          "name": "name",
          "type": "string"
        },
        {
          "name": "phone",
          "type": "string"
        },
        {
          "name": "isVerified",
          "type": "bool"
        },
        {
          "name": "hasVoted",
          "type": "bool"
        },
        {
          "name": "isRegistered",
          "type": "bool"
        }
      ],
      "payable": false,
      "stateMutability": "view",
      "type": "function",
      "signature": "0x7e5f5726"
    },
    {
      "constant": true,
      "inputs": [
        {
          "name": "",
          "type": "uint256"
        }
      ],
      "name": "evaluators",
      "outputs": [
        {
          "name": "",
          "type": "address"
        }
      ],
      "payable": false,
      "stateMutability": "view",
      "type": "function",
      "signature": "0xe168afe3"
    },
    {
      "constant": true,
      "inputs": [],
      "name": "admin",
      "outputs": [
        {
          "name": "",
          "type": "address"
        }
      ],
      "payable": false,
      "stateMutability": "view",
      "type": "function",
      "signature": "0xf851a440"
    },
    {
      "inputs": [],
      "payable": false,
      "stateMutability": "nonpayable",
      "type": "constructor",
      "signature": "constructor"
    },
    {
      "constant": true,
      "inputs": [],
      "name": "getAdmin",
      "outputs": [
        {
          "name": "",
          "type": "address"
        }
      ],
      "payable": false,
      "stateMutability": "view",
      "type": "function",
      "signature": "0x6e9960c3"
    },
    {
      "constant": false,
      "inputs": [
        {
          "name": "_newsPost",
          "type": "string"
        }
      ],
      "name": "addNews",
      "outputs": [],
      "payable": false,
      "stateMutability": "nonpayable",
      "type": "function",
      "signature": "0x7f784da7"
    },
    {
      "constant": false,
      "inputs": [
        {
          "name": "_adminName",
          "type": "string"
        },
        {
          "name": "_adminEmail",
          "type": "string"
        },
        {
          "name": "_newsdetectionTitle",
          "type": "string"
        }
      ],
      "name": "setnewsDetectionDetails",
      "outputs": [],
      "payable": false,
      "stateMutability": "nonpayable",
      "type": "function",
      "signature": "0x8c315a20"
    },
    {
      "constant": true,
      "inputs": [],
      "name": "getAdminName",
      "outputs": [
        {
          "name": "",
          "type": "string"
        }
      ],
      "payable": false,
      "stateMutability": "view",
      "type": "function",
      "signature": "0x0e2354cf"
    },
    {
      "constant": true,
      "inputs": [],
      "name": "getAdminEmail",
      "outputs": [
        {
          "name": "",
          "type": "string"
        }
      ],
      "payable": false,
      "stateMutability": "view",
      "type": "function",
      "signature": "0x831318f1"
    },
    {
      "constant": true,
      "inputs": [],
      "name": "getnewsDetectionTitle",
      "outputs": [
        {
          "name": "",
          "type": "string"
        }
      ],
      "payable": false,
      "stateMutability": "view",
      "type": "function",
      "signature": "0x6441c7f3"
    },
    {
      "constant": true,
      "inputs": [],
      "name": "getTotalNews",
      "outputs": [
        {
          "name": "",
          "type": "uint256"
        }
      ],
      "payable": false,
      "stateMutability": "view",
      "type": "function",
      "signature": "0xd204ff3e"
    },
    {
      "constant": true,
      "inputs": [],
      "name": "getTotalEvaluator",
      "outputs": [
        {
          "name": "",
          "type": "uint256"
        }
      ],
      "payable": false,
      "stateMutability": "view",
      "type": "function",
      "signature": "0xbb7fa13a"
    },
    {
      "constant": false,
      "inputs": [
        {
          "name": "_name",
          "type": "string"
        },
        {
          "name": "_phone",
          "type": "string"
        }
      ],
      "name": "registerAsEvaluator",
      "outputs": [],
      "payable": false,
      "stateMutability": "nonpayable",
      "type": "function",
      "signature": "0x9952d3ba"
    },
    {
      "constant": false,
      "inputs": [
        {
          "name": "_verifedStatus",
          "type": "bool"
        },
        {
          "name": "evaluatorAddress",
          "type": "address"
        }
      ],
      "name": "verifyEvaluator",
      "outputs": [],
      "payable": false,
      "stateMutability": "nonpayable",
      "type": "function",
      "signature": "0x865c6619"
    },
    {
      "constant": false,
      "inputs": [
        {
          "name": "newsId",
          "type": "uint256"
        }
      ],
      "name": "vote",
      "outputs": [],
      "payable": false,
      "stateMutability": "nonpayable",
      "type": "function",
      "signature": "0x0121b93f"
    },
    {
      "constant": false,
      "inputs": [],
      "name": "endnewsDetection",
      "outputs": [],
      "payable": false,
      "stateMutability": "nonpayable",
      "type": "function",
      "signature": "0x656c0ce6"
    },
    {
      "constant": true,
      "inputs": [],
      "name": "getStart",
      "outputs": [
        {
          "name": "",
          "type": "bool"
        }
      ],
      "payable": false,
      "stateMutability": "view",
      "type": "function",
      "signature": "0xc5292c67"
    },
    {
      "constant": true,
      "inputs": [],
      "name": "getEnd",
      "outputs": [
        {
          "name": "",
          "type": "bool"
        }
      ],
      "payable": false,
      "stateMutability": "view",
      "type": "function",
      "signature": "0x9f05a36d"
    }
  ],
  "bytecode": "0x608060405234801561001057600080fd5b50336000806101000a81548173ffffffffffffffffffffffffffffffffffffffff021916908373ffffffffffffffffffffffffffffffffffffffff160217905550600060018190555060006002819055506000600360006101000a81548160ff0219169083151502179055506000600360016101000a81548160ff0219169083151502179055506118dc806100a66000396000f3fe6080604052600436106100fc576000357c0100000000000000000000000000000000000000000000000000000000900463ffffffff1680630121b93f146101015780630e2354cf1461013c5780632309ec7d146101cc5780636441c7f31461028e578063656c0ce61461031e5780636e9960c3146103355780637e5f57261461038c5780637f784da714610516578063831318f1146105de578063865c66191461066e5780638c315a20146106cb5780639952d3ba146108c15780639f05a36d14610a20578063bb7fa13a14610a4f578063c5292c6714610a7a578063d204ff3e14610aa9578063e168afe314610ad4578063f851a44014610b4f575b600080fd5b34801561010d57600080fd5b5061013a6004803603602081101561012457600080fd5b8101908080359060200190929190505050610ba6565b005b34801561014857600080fd5b50610151610d31565b6040518080602001828103825283818151815260200191508051906020019080838360005b83811015610191578082015181840152602081019050610176565b50505050905090810190601f1680156101be5780820380516001836020036101000a031916815260200191505b509250505060405180910390f35b3480156101d857600080fd5b50610205600480360360208110156101ef57600080fd5b8101908080359060200190929190505050610dd6565b6040518084815260200180602001838152602001828103825284818151815260200191508051906020019080838360005b83811015610251578082015181840152602081019050610236565b50505050905090810190601f16801561027e5780820380516001836020036101000a031916815260200191505b5094505050505060405180910390f35b34801561029a57600080fd5b506102a3610e98565b6040518080602001828103825283818151815260200191508051906020019080838360005b838110156102e35780820151818401526020810190506102c8565b50505050905090810190601f1680156103105780820380516001836020036101000a031916815260200191505b509250505060405180910390f35b34801561032a57600080fd5b50610333610f3d565b005b34801561034157600080fd5b5061034a610fd0565b604051808273ffffffffffffffffffffffffffffffffffffffff1673ffffffffffffffffffffffffffffffffffffffff16815260200191505060405180910390f35b34801561039857600080fd5b506103db600480360360208110156103af57600080fd5b81019080803573ffffffffffffffffffffffffffffffffffffffff169060200190929190505050610ff9565b604051808773ffffffffffffffffffffffffffffffffffffffff1673ffffffffffffffffffffffffffffffffffffffff1681526020018060200180602001861515151581526020018515151515815260200184151515158152602001838103835288818151815260200191508051906020019080838360005b8381101561046f578082015181840152602081019050610454565b50505050905090810190601f16801561049c5780820380516001836020036101000a031916815260200191505b50838103825287818151815260200191508051906020019080838360005b838110156104d55780820151818401526020810190506104ba565b50505050905090810190601f1680156105025780820380516001836020036101000a031916815260200191505b509850505050505050505060405180910390f35b34801561052257600080fd5b506105dc6004803603602081101561053957600080fd5b810190808035906020019064010000000081111561055657600080fd5b82018360208201111561056857600080fd5b8035906020019184600183028401116401000000008311171561058a57600080fd5b91908080601f016020809104026020016040519081016040528093929190818152602001838380828437600081840152601f19601f8201169050808301925050505050505091929192905050506111ac565b005b3480156105ea57600080fd5b506105f361128e565b6040518080602001828103825283818151815260200191508051906020019080838360005b83811015610633578082015181840152602081019050610618565b50505050905090810190601f1680156106605780820380516001836020036101000a031916815260200191505b509250505060405180910390f35b34801561067a57600080fd5b506106c96004803603604081101561069157600080fd5b81019080803515159060200190929190803573ffffffffffffffffffffffffffffffffffffffff169060200190929190505050611333565b005b3480156106d757600080fd5b506108bf600480360360608110156106ee57600080fd5b810190808035906020019064010000000081111561070b57600080fd5b82018360208201111561071d57600080fd5b8035906020019184600183028401116401000000008311171561073f57600080fd5b91908080601f016020809104026020016040519081016040528093929190818152602001838380828437600081840152601f19601f820116905080830192505050505050509192919290803590602001906401000000008111156107a257600080fd5b8201836020820111156107b457600080fd5b803590602001918460018302840111640100000000831117156107d657600080fd5b91908080601f016020809104026020016040519081016040528093929190818152602001838380828437600081840152601f19601f8201169050808301925050505050505091929192908035906020019064010000000081111561083957600080fd5b82018360208201111561084b57600080fd5b8035906020019184600183028401116401000000008311171561086d57600080fd5b91908080601f016020809104026020016040519081016040528093929190818152602001838380828437600081840152601f19601f8201169050808301925050505050505091929192905050506113ec565b005b3480156108cd57600080fd5b50610a1e600480360360408110156108e457600080fd5b810190808035906020019064010000000081111561090157600080fd5b82018360208201111561091357600080fd5b8035906020019184600183028401116401000000008311171561093557600080fd5b91908080601f016020809104026020016040519081016040528093929190818152602001838380828437600081840152601f19601f8201169050808301925050505050505091929192908035906020019064010000000081111561099857600080fd5b8201836020820111156109aa57600080fd5b803590602001918460018302840111640100000000831117156109cc57600080fd5b91908080601f016020809104026020016040519081016040528093929190818152602001838380828437600081840152601f19601f8201169050808301925050505050505091929192905050506114fa565b005b348015610a2c57600080fd5b50610a356116f1565b604051808215151515815260200191505060405180910390f35b348015610a5b57600080fd5b50610a64611708565b6040518082815260200191505060405180910390f35b348015610a8657600080fd5b50610a8f611712565b604051808215151515815260200191505060405180910390f35b348015610ab557600080fd5b50610abe611729565b6040518082815260200191505060405180910390f35b348015610ae057600080fd5b50610b0d60048036036020811015610af757600080fd5b8101908080359060200190929190505050611733565b604051808273ffffffffffffffffffffffffffffffffffffffff1673ffffffffffffffffffffffffffffffffffffffff16815260200191505060405180910390f35b348015610b5b57600080fd5b50610b64611771565b604051808273ffffffffffffffffffffffffffffffffffffffff1673ffffffffffffffffffffffffffffffffffffffff16815260200191505060405180910390f35b60001515600960003373ffffffffffffffffffffffffffffffffffffffff1673ffffffffffffffffffffffffffffffffffffffff16815260200190815260200160002060030160019054906101000a900460ff161515141515610c0857600080fd5b60011515600960003373ffffffffffffffffffffffffffffffffffffffff1673ffffffffffffffffffffffffffffffffffffffff16815260200190815260200160002060030160009054906101000a900460ff161515141515610c6a57600080fd5b60011515600360009054906101000a900460ff161515141515610c8c57600080fd5b60001515600360019054906101000a900460ff161515141515610cae57600080fd5b600160046000838152602001908152602001600020600201600082825401925050819055506001600960003373ffffffffffffffffffffffffffffffffffffffff1673ffffffffffffffffffffffffffffffffffffffff16815260200190815260200160002060030160016101000a81548160ff02191690831515021790555050565b606060056000018054600181600116156101000203166002900480601f016020809104026020016040519081016040528092919081815260200182805460018160011615610100020316600290048015610dcc5780601f10610da157610100808354040283529160200191610dcc565b820191906000526020600020905b815481529060010190602001808311610daf57829003601f168201915b5050505050905090565b6004602052806000526040600020600091509050806000015490806001018054600181600116156101000203166002900480601f016020809104026020016040519081016040528092919081815260200182805460018160011615610100020316600290048015610e885780601f10610e5d57610100808354040283529160200191610e88565b820191906000526020600020905b815481529060010190602001808311610e6b57829003601f168201915b5050505050908060020154905083565b606060056002018054600181600116156101000203166002900480601f016020809104026020016040519081016040528092919081815260200182805460018160011615610100020316600290048015610f335780601f10610f0857610100808354040283529160200191610f33565b820191906000526020600020905b815481529060010190602001808311610f1657829003601f168201915b5050505050905090565b6000809054906101000a900473ffffffffffffffffffffffffffffffffffffffff1673ffffffffffffffffffffffffffffffffffffffff163373ffffffffffffffffffffffffffffffffffffffff16141515610f9857600080fd5b6001600360016101000a81548160ff0219169083151502179055506000600360006101000a81548160ff021916908315150217905550565b60008060009054906101000a900473ffffffffffffffffffffffffffffffffffffffff16905090565b60096020528060005260406000206000915090508060000160009054906101000a900473ffffffffffffffffffffffffffffffffffffffff1690806001018054600181600116156101000203166002900480601f0160208091040260200160405190810160405280929190818152602001828054600181600116156101000203166002900480156110cb5780601f106110a0576101008083540402835291602001916110cb565b820191906000526020600020905b8154815290600101906020018083116110ae57829003601f168201915b505050505090806002018054600181600116156101000203166002900480601f0160208091040260200160405190810160405280929190818152602001828054600181600116156101000203166002900480156111695780601f1061113e57610100808354040283529160200191611169565b820191906000526020600020905b81548152906001019060200180831161114c57829003601f168201915b5050505050908060030160009054906101000a900460ff16908060030160019054906101000a900460ff16908060030160029054906101000a900460ff16905086565b6000809054906101000a900473ffffffffffffffffffffffffffffffffffffffff1673ffffffffffffffffffffffffffffffffffffffff163373ffffffffffffffffffffffffffffffffffffffff1614151561120757600080fd5b61120f611796565b6060604051908101604052806001548152602001838152602001600081525090508060046000600154815260200190815260200160002060008201518160000155602082015181600101908051906020019061126c9291906117b8565b5060408201518160020155905050600180600082825401925050819055505050565b606060056001018054600181600116156101000203166002900480601f0160208091040260200160405190810160405280929190818152602001828054600181600116156101000203166002900480156113295780601f106112fe57610100808354040283529160200191611329565b820191906000526020600020905b81548152906001019060200180831161130c57829003601f168201915b5050505050905090565b6000809054906101000a900473ffffffffffffffffffffffffffffffffffffffff1673ffffffffffffffffffffffffffffffffffffffff163373ffffffffffffffffffffffffffffffffffffffff1614151561138e57600080fd5b81600960008373ffffffffffffffffffffffffffffffffffffffff1673ffffffffffffffffffffffffffffffffffffffff16815260200190815260200160002060030160006101000a81548160ff0219169083151502179055505050565b6000809054906101000a900473ffffffffffffffffffffffffffffffffffffffff1673ffffffffffffffffffffffffffffffffffffffff163373ffffffffffffffffffffffffffffffffffffffff1614151561144757600080fd5b60606040519081016040528084815260200183815260200182815250600560008201518160000190805190602001906114819291906117b8565b50602082015181600101908051906020019061149e9291906117b8565b5060408201518160020190805190602001906114bb9291906117b8565b509050506001600360006101000a81548160ff0219169083151502179055506000600360016101000a81548160ff021916908315150217905550505050565b611502611838565b60c0604051908101604052803373ffffffffffffffffffffffffffffffffffffffff16815260200184815260200183815260200160001515815260200160001515815260200160011515815250905080600960003373ffffffffffffffffffffffffffffffffffffffff1673ffffffffffffffffffffffffffffffffffffffff16815260200190815260200160002060008201518160000160006101000a81548173ffffffffffffffffffffffffffffffffffffffff021916908373ffffffffffffffffffffffffffffffffffffffff16021790555060208201518160010190805190602001906115f49291906117b8565b5060408201518160020190805190602001906116119291906117b8565b5060608201518160030160006101000a81548160ff02191690831515021790555060808201518160030160016101000a81548160ff02191690831515021790555060a08201518160030160026101000a81548160ff02191690831515021790555090505060083390806001815401808255809150509060018203906000526020600020016000909192909190916101000a81548173ffffffffffffffffffffffffffffffffffffffff021916908373ffffffffffffffffffffffffffffffffffffffff160217905550506001600260008282540192505081905550505050565b6000600360019054906101000a900460ff16905090565b6000600254905090565b6000600360009054906101000a900460ff16905090565b6000600154905090565b60088181548110151561174257fe5b906000526020600020016000915054906101000a900473ffffffffffffffffffffffffffffffffffffffff1681565b6000809054906101000a900473ffffffffffffffffffffffffffffffffffffffff1681565b6060604051908101604052806000815260200160608152602001600081525090565b828054600181600116156101000203166002900490600052602060002090601f016020900481019282601f106117f957805160ff1916838001178555611827565b82800160010185558215611827579182015b8281111561182657825182559160200191906001019061180b565b5b509050611834919061188b565b5090565b60c060405190810160405280600073ffffffffffffffffffffffffffffffffffffffff16815260200160608152602001606081526020016000151581526020016000151581526020016000151581525090565b6118ad91905b808211156118a9576000816000905550600101611891565b5090565b9056fea165627a7a723058204262e6eb0deff54d6bb80574340b84f40d3c332e0b7d4ebcd5b997cbe520a4df0029",
  "source": "// SPDX-License-Identifier: MIT\npragma solidity >=0.4.21 <0.9.0;\n\ncontract newsDetection {\n    address public admin;\n    uint256 newsCount;\n    uint256 evaluatorCount;\n    bool start;\n    bool end;\n\n    constructor() public {\n        // Initilizing default values\n        admin = msg.sender;\n        newsCount = 0;\n        evaluatorCount = 0;\n        start = false;\n        end = false;\n    }\n\n    function getAdmin() public view returns (address) {\n        // Returns account address used to deploy contract (i.e. Admin)\n        return admin;\n    }\n\n    modifier onlyAdmin() {\n        // Modifier for only Admin access\n        require(msg.sender == admin);\n        _;\n    }\n    // Modeling a news\n    struct News{\n        uint256 newsId;\n        string newsPost;\n        uint256 voteCount;\n    }\n    mapping(uint256 => News) public newsDetails;\n\n    // Adding new newss\n    function addNews(string memory _newsPost)\n        public\n        // Only Admin can add\n        onlyAdmin\n    {\n        News memory newNews=\n            News({\n                newsId: newsCount,\n                newsPost: _newsPost,\n                voteCount: 0\n            });\n        newsDetails[newsCount] = newNews;\n        newsCount += 1;\n    }\n\n    // Modeling a newsDetection Details\n    struct newsDetectionDetails {\n        string adminName;\n        string adminEmail;\n        string newsdetectionTitle;\n    }\n    newsDetectionDetails newsdetectionDetails;\n\n    function setnewsDetectionDetails(\n        string memory _adminName,\n        string memory _adminEmail,\n        string memory _newsdetectionTitle\n\n    )\n        public\n        // Only Admin can add\n        onlyAdmin\n    {\n        newsdetectionDetails = newsDetectionDetails(\n            _adminName,\n            _adminEmail,\n            _newsdetectionTitle\n\n        );\n        start = true;\n        end = false;\n    }\n\n    // Get newsDetections details\n    function getAdminName() public view returns (string memory) {\n        return newsdetectionDetails.adminName;\n    }\n\n    function getAdminEmail() public view returns (string memory) {\n        return newsdetectionDetails.adminEmail;\n    }\n\n    function getnewsDetectionTitle() public view returns (string memory) {\n        return newsdetectionDetails.newsdetectionTitle;\n    }\n      \n    // Get newss count\n    function getTotalNews() public view returns (uint256) {\n        // Returns total number of newss\n        return newsCount;\n    }\n\n    // Get evaluators count\n    function getTotalEvaluator() public view returns (uint256) {\n        // Returns total number of evaluators\n        return evaluatorCount;\n    }\n\n    // Modeling a evaluator\n    struct Evaluator {\n        address evaluatorAddress;\n        string name;\n        string phone;\n        bool isVerified;\n        bool hasVoted;\n        bool isRegistered;\n    }\n    address[] public evaluators; // Array of address to store address of evaluators\n    mapping(address => Evaluator) public evaluatorDetails;\n\n    // Request to be added as evaluator\n    function registerAsEvaluator(string memory _name, string memory _phone) public {\n        Evaluator memory newEvaluator =\n            Evaluator({\n                evaluatorAddress: msg.sender,\n                name: _name,\n                phone: _phone,\n                hasVoted: false,\n                isVerified: false,\n                isRegistered: true\n            });\n        evaluatorDetails[msg.sender] = newEvaluator;\n        evaluators.push(msg.sender);\n        evaluatorCount += 1;\n    }\n\n    // Verify evaluator\n    function verifyEvaluator(bool _verifedStatus, address evaluatorAddress)\n        public\n        // Only Admin can verify\n        onlyAdmin\n    {\n        evaluatorDetails[evaluatorAddress].isVerified = _verifedStatus;\n    }\n\n    // Vote\n    function vote(uint256 newsId) public {\n        require(evaluatorDetails[msg.sender].hasVoted == false);\n        require(evaluatorDetails[msg.sender].isVerified == true);\n        require(start == true);\n        require(end == false);\n        newsDetails[newsId].voteCount += 1;\n        evaluatorDetails[msg.sender].hasVoted = true;\n    }\n\n    // End newsDetection\n    function endnewsDetection() public onlyAdmin {\n        end = true;\n        start = false;\n    }\n\n    // Get newsDetection start and end values\n    function getStart() public view returns (bool) {\n        return start;\n    }\n\n    function getEnd() public view returns (bool) {\n        return end;\n    }\n}",
  "sourcePath": "C:/Users/Anisu/Desktop/newsDetection_latest/contracts/newsDetection.sol",
  "compiler": {
    "name": "solc",
    "version": "0.5.0+commit.1d4f565a.Emscripten.clang"
  },
  "schemaVersion": "3.0.1",
  "updatedAt": "2022-07-19T12:26:26.140Z",
  "devdoc": {
    "methods": {}
  },
  "userdoc": {
    "methods": {}
  }
}